:100000000C9446000C945D000C945D000C945D0013
:100010000C945D000C945D000C945D000C945D00EC
:100020000C945D000C945D000C945D000C945D00DC
:100030000C945D000C945D000C945D000C945D00CC
:100040000C945D000C945D000C945D000C945D00BC
:100050000C945D000C945D000C945D000C945D00AC
:100060000C945D000C945D000C945D000C945D009C
:100070000C945D000C945D000C945D000C945D008C
:100080000C945D000C945D000C945D0011241FBE67
:10009000CFEFD0E4DEBFCDBF11E0A0E0B1E0E6E7F6
:1000A000F2E000E00BBF02C007900D92AE30B10746
:1000B000D9F70E9499000C9439010C940000CF9359
:1000C000DF9300D01F92CDB7DEB789837B836A832D
:1000D00089818A3031F48A819B81BC018DE00E9444
:1000E0005F0080EC90E0FC018081882F90E08072BE
:1000F0009927892BB1F386EC90E02981FC012083BC
:1001000080E090E00F900F900F90DF91CF910895D5
:10011000CF93DF93CDB7DEB78AE790E02AE730E0F0
:10012000F9012081206EFC0120830000DF91CF9136
:100130000895CF93DF9300D000D0CDB7DEB784E22F
:1001400090E02FEFFC01208385E290E0FC0110821B
:100150008AE290E02FEFFC0120838BE290E0FC012B
:1001600010820E94880088E790E0FC0180819181E4
:100170009C838B8388E790E0FC01808191819C8344
:100180008B838B819C81883F910528F08FEF90E0D5
:100190009A83898368C08B819C81893D910550F049
:1001A0008B819C81883F910528F48FE790E09A83AA
:1001B000898359C08B819C818A3B910550F08B814A
:1001C0009C81893D910528F48FE390E09A8389838F
:1001D0004AC08B819C818B39910550F08B819C8129
:1001E0008A3B910528F48FE190E09A8389833BC094
:1001F0008B819C818C37910550F08B819C818B3950
:10020000910528F48FE090E09A8389832CC08B813C
:100210009C818D35910550F08B819C818C379105A7
:1002200028F487E090E09A8389831DC08B819C81AC
:10023000CE9750F08B819C818D35910528F483E019
:1002400090E09A8389830FC08B819C814F9748F0FF
:100250008B819C81CE9728F481E090E09A838983FA
:1002600002C01A82198285E290E02981FC01208374
:0602700081CFF894FFCFDE
:0E02760000000002000000005F000000000019
:00000001FF
